:020000040800F2
:10000000000003209D2B00084D1300084F1300082B
:100010005113000853130008551300080000000096
:10002000000000000000000000000000571300085E
:1000300059130008000000005B1300085D1300085E
:10004000ED2B0008ED2B0008ED2B0008ED2B000830
:10005000ED2B0008ED2B0008ED2B0008ED2B000820
:10006000ED2B0008ED2B0008ED2B0008ED2B000810
:10007000ED2B0008ED2B0008ED2B0008ED2B000800
:10008000ED2B0008ED2B0008ED2B0008ED2B0008F0
:10009000ED2B0008ED2B0008ED2B0008ED2B0008E0
:1000A000ED2B0008ED2B0008ED2B0008ED2B0008D0
:1000B000ED2B00086513000875130008ED2B0008F0
:1000C000ED2B0008ED2B0008ED2B0008ED2B0008B0
:1000D000ED2B0008ED2B0008ED2B0008ED2B0008A0
:1000E000ED2B0008ED2B0008ED2B0008ED2B000890
:1000F000ED2B0008ED2B0008ED2B0008ED2B000880
:10010000ED2B0008ED2B0008ED2B0008ED2B00086F
:100110008513000895130008ED2B0008ED2B00084F
:10012000ED2B0008ED2B0008ED2B0008ED2B00084F
:10013000ED2B0008ED2B0008ED2B0008ED2B00083F
:10014000ED2B0008ED2B0008ED2B0008ED2B00082F
:10015000ED2B0008ED2B0008ED2B0008ED2B00081F
:10016000ED2B0008ED2B0008ED2B0008ED2B00080F
:10017000ED2B0008ED2B0008ED2B0008000000001F
:10018000ED2B0008ED2B0008ED2B0008ED2B0008EF
:10019000ED2B0008ED2B0008ED2B0008ED2B0008DF
:0C01A000ED2B0008ED2B0008ED2B0008F3
:1001AC000348044B834202D0034B03B118477047FA
:1001BC0048000020480000200000000005480649C7
:1001CC000B1AD90F01EBA301491002D0034B03B159
:1001DC00184770474800002048000020000000002D
:1001EC0010B5064C237843B9FFF7DAFF044B13B173
:1001FC000448AFF300800123237010BD4800002099
:10020C0000000000F02B000808B5044B1BB104499A
:10021C000448AFF30080BDE80840CFE700000000C1
:10022C004C000020F02B000870B50D4E0D4D761BC8
:10023C00B61006D0002455F8043B01349847A6426A
:10024C00F9D1094E094D761B02F0CCFCB61006D044
:10025C00002455F8043B01349847A642F9D170BDEF
:10026C003C2C00083C2C0008402C00083C2C0008BE
:10027C00830730B548D0541E002A3FD0CAB203467B
:10028C0001E0013C3AD303F8012B9D07F9D1032C73
:10029C002DD9CDB245EA05250F2C45EA054536D9B1
:1002AC00A4F1100222F00F0C03F1200EE6444FEAE9
:1002BC00121C03F1100242E9045542E902551032B6
:1002CC007245F8D10CF1010214F00C0F03EB021281
:1002DC0004F00F0C13D0ACF1040323F0030304332C
:1002EC00134442F8045B9342FBD10CF003042CB191
:1002FC00CAB21C4403F8012B9C42FBD130BD6446AE
:10030C001346002CF4D1F9E703461446BFE71A460E
:10031C00A446E0E753B94AB9002908BF00281CBF1E
:10032C004FF0FF314FF0FF3000F074B9ADF1080C15
:10033C006DE904CE00F006F8DDF804E0DDE90223F7
:10034C0004B070472DE9F047089D04468E46002BFB
:10035C004DD18A42944669D9B2FA82F252B101FA6D
:10036C0002F3C2F1200120FA01F10CFA02FC41EA7D
:10037C00030E94404FEA1C48210CBEFBF8F61FFA02
:10038C008CF708FB16E341EA034306FB07F199429D
:10039C000AD91CEB030306F1FF3080F01F81994250
:1003AC0040F21C81023E63445B1AA4B2B3FBF8F02A
:1003BC0008FB103344EA034400FB07F7A7420AD9B1
:1003CC001CEB040400F1FF3380F00A81A74240F2D9
:1003DC0007816444023840EA0640E41B00261DB144
:1003EC00D4400023C5E900433146BDE8F0878B4279
:1003FC0009D9002D00F0EF800026C5E90001304638
:10040C003146BDE8F087B3FA83F6002E4AD18B4211
:10041C0002D3824200F2F980841A61EB03030120BB
:10042C009E46002DE0D0C5E9004EDDE702B9FFDEA7
:10043C00B2FA82F2002A40F09280A1EB0C014FEA52
:10044C001C471FFA8CFE0126200CB1FBF7F307FBAF
:10045C00131140EA01410EFB03F0884208D91CEB52
:10046C00010103F1FF3802D2884200F2CB804346EF
:10047C00091AA4B2B1FBF7F007FB101144EA0144CE
:10048C000EFB00FEA64508D91CEB040400F1FF315D
:10049C0002D2A64500F2BB800846A4EB0E0440EA4B
:1004AC0003409CE7C6F12007B34022FA07FC4CEA54
:1004BC00030C20FA07F401FA06F31C43F9404FEA47
:1004CC001C4900FA06F3B1FBF9F8200C1FFA8CFE5C
:1004DC0009FB181140EA014108FB0EF0884202FAB0
:1004EC0006F20BD91CEB010108F1FF3A80F0888071
:1004FC00884240F28580A8F102086144091AA4B22E
:10050C00B1FBF9F009FB101144EA014100FB0EFEAE
:10051C008E4508D91CEB010100F1FF346CD28E45DD
:10052C006AD90238614440EA0840A0FB0294A1EB6E
:10053C000E01A142C846A64656D353D05DB1B3EBCB
:10054C00080261EB0E0101FA07F722FA06F3F140FB
:10055C001F43C5E9007100263146BDE8F087C2F1A2
:10056C002003D8400CFA02FC21FA03F3914001431A
:10057C004FEA1C471FFA8CFEB3FBF7F007FB103653
:10058C000B0C43EA064300FB0EF69E4204FA02F4FF
:10059C0008D91CEB030300F1FF382FD29E422DD952
:1005AC00023863449B1B89B2B3FBF7F607FB163387
:1005BC0041EA034106FB0EF38B4208D91CEB010107
:1005CC0006F1FF3816D28B4214D9023E6144C91A87
:1005DC0046EA004638E72E46284605E70646E3E697
:1005EC001846F8E64B45A9D2B9EB020864EB0C0EA1
:1005FC000138A3E74646EAE7204694E74046D1E7B0
:10060C00D0467BE7023B614432E7304609E764445D
:10061C00023842E7704700BF184B1A78184B1B780A
:10062C009A4215D0531CDBB214490B7015498A5CE5
:10063C00613A052A07D8DFE802F0030C1014181CE5
:10064C00114A0A2111703F2B02D90C4B00221A704F
:10065C0070470D4A0B211170F5E70B4A0C211170F4
:10066C00F1E7094A0D211170EDE7074A0E211170CF
:10067C00E9E7054A0F211170E5E700BFBC00002037
:10068C00BD00002000010020AB000020214B1A7897
:10069C00214B1B789A4217D0531CDBB21D490B70AF
:1006AC001E498A5C303A092A09D8DFE802F0050EA7
:1006BC0012161A1E22262A2E194A002111703F2BBF
:1006CC0002D9144B00221A707047154A012111707F
:1006DC00F5E7134A02211170F1E7114A0321117059
:1006EC00EDE70F4A04211170E9E70D4A052111705D
:1006FC00E5E70B4A06211170E1E7094A0721117061
:10070C00DDE7074A08211170D9E7054A0921117064
:10071C00D5E700BFBA000020BB000020C0000020BD
:10072C00AA00002008B5194A536923F00F03184397
:10073C005061174B1B786BB1154B00221A70154B7F
:10074C001B7843B901222021104801F019FD114BEF
:10075C0001221A7008BD002220210C4801F010FD66
:10076C000C4B00221A700C4A13780133DBB2137055
:10077C00032BEFD9134600221A70084A137883F022
:10078C00010303F001031370E4E700BF0010024003
:10079C00B1000020B3000020B7000020B6000020FC
:1007AC0008B5264B1B7883B9254BC3221A70254BF1
:1007BC001B78254AD25C254B1A70254B1B78032BD2
:1007CC0017D8DFE803F00C17232E1D4BCF221A701D
:1007DC00204B1B781C4AD25C1C4B1A70EDE7002294
:1007EC0010211D4801F0CCFC154B18780009FFF7BF
:1007FC0099FF08BD00221021174801F0C1FC104BD5
:10080C00187800F00F00FFF78DFFF2E7012210219E
:10081C00114801F0B5FC0D4B18780009FFF782FF69
:10082C00E7E7012210210C4801F0AAFC074B1878CD
:10083C0000F00F00FFF776FFDBE700BFB6000020EB
:10084C00A4000020AB00002004000020A900002020
:10085C00B7000020AA00002000100240034B1B78B8
:10086C00322B02D0323B014A13707047000000203B
:10087C00034B1B78322B02D0323B014A137070476A
:10088C000100002008B501224FF48051014801F00D
:10089C0077FC08BD0000024008B500224FF48051DF
:1008AC00014801F06DFC08BD0000024008B50122B2
:1008BC000221024801F064FC08BD00BF000C02409C
:1008CC0008B500220221024801F05AFC08BD00BF05
:1008DC000000024010B5084C21784B1C23700A23F1
:1008EC00012206480144064801F0D9FE2378052B65
:1008FC0001D90022227010BDB80000202C0000206D
:10090C00D401002010B5084C21784B1C23700A230D
:10091C00012206480144064801F0C1FE2378082B49
:10092C0001D90022227010BDB90000203400002033
:10093C0018020020064A13780649C8540133DBB26A
:10094C0013703F2B02D9134600221A70704700BF58
:10095C00AD0000206400002008B5214B1B7813B3B8
:10096C001F4B00221A701F4A13780133DBB213702D
:10097C00032B19D01C4A13780133DBB21370022BF2
:10098C0019D01A4A13780133DBB21370184A127853
:10099C00934217D2174A13780133DBB21370164AFD
:1009AC001278934215D208BD134600221A70134BCD
:1009BC0001221A70DEE7134600221A70104B012236
:1009CC001A70DEE7094B00221A700520FFF7B2FF00
:1009DC00E0E7084B00221A700620FFF7ABFFE2E7B6
:1009EC00B0000020A6000020A5000020A7000020D9
:1009FC0000000020A800002001000020B200002010
:100A0C00B100002008B51F4B1B7853B31D4B0022BF
:100A1C001A701D4B18691D4B1A785200D2B21A70FD
:100A2C0002F00E021A70C0F380010A431A701849C2
:100A3C000B785B00DBB20B7003F00E030B70C0F392
:100A4C00C00003430B700C2A0CD0104B1B78032BEB
:100A5C000CD00F4B1B780C2B0CD00D4B1B78032B95
:100A6C000CD008BD0120FFF765FFEEE70320FFF770
:100A7C0061FFEEE70220FFF75DFFEEE70420FFF7D2
:100A8C0059FFEEE7B200002000180240B40000202D
:100A9C00B5000020064A13780649C85C0133DBB266
:100AAC0013703F2B02D9134600221A70704700BFF7
:100ABC00AC0000206400002008B52B4B1A782B4B9F
:100ACC001B789A4207D12A4B1B78012B24D0022B7E
:100ADC0036D02BB108BDFFF7DDFF264B1870F2E7BF
:100AEC00244B1B78012B0CD0022BF3D1FA23224A76
:100AFC001370224A1370FFF7D9FE1D4B02221A7095
:100B0C00E8E7FA231E4A13701E4A1370FFF7BAFE69
:100B1C00174B01221A70DDE7164B1B78032B09D0FB
:100B2C00052BD7D1FFF7D6FEFFF798FE114B00220D
:100B3C001A70CFE7FFF7B0FE0D4B00221A70C9E711
:100B4C000C4B1B78042B09D0062BC3D1FFF7DAFE14
:100B5C00FFF78EFE074B00221A70BBE7FFF7B0FEC3
:100B6C00034B00221A70B5E7AC000020AD0000204A
:100B7C0040010020AE00002001000020A800002051
:100B8C0000000020A7000020C04300F07F0021B926
:100B9C0040F08000024B5861704740F48070F9E7D8
:100BAC000014024008B50E4B1B7883B10C4B00228D
:100BBC001A700C4B197881F0010101F001011970C8
:100BCC0031B1094B1B78094AD05CFFF7DDFF08BD3A
:100BDC00074B1B78054AD05CFFF7D6FFF7E700BF41
:100BEC00AF00002015000020AA00002018000020F3
:100BFC00AB000020074B984203D0074B984204D01F
:100C0C007047064B01221A707047054B01221A706F
:100C1C00F6E700BF440100208C010020AF0000204B
:100C2C00B000002010B5144B984203D0134B9842DF
:100C3C0011D010BD124C23780133DBB2237001228A
:100C4C00104919440C4801F07CFF23783F2BF0D954
:100C5C0000222270EDE70C4C23780133DBB22370B9
:100C6C0001220A491944054801F06BFF23783F2BF8
:100C7C00DFD900222270DCE7D4010020180200200A
:100C8C00BB000020C0000020BD000020000100209F
:100C9C0072B6FEE700B595B03022002108A8FFF728
:100CAC00E7FA0023039304930593069307930193A8
:100CBC00204A116C41F080511164126C02F0805288
:100CCC000192019A02931C4A136823F4404343F4A3
:100CDC0080431360136803F440430293029B012387
:100CEC0008934FF48033099302230E934FF4800240
:100CFC000F920422109260221192129303231393E9
:100D0C0008A800F003FE88B90F2303930223049371
:100D1C00802305934FF4805306930793012103A876
:100D2C0001F05AF820B915B05DF804FBFFF7B0FFDD
:100D3C00FFF7AEFF003802400070004008B501F02C
:100D4C0015FBFFF7A7FF00F06BF800F091F900F02E
:100D5C00C7F900F039FA00F051FA244800F06CFBA6
:100D6C00234800F069FB0024224B1C70224B1C70A2
:100D7C00224E3470224D2C70FFF78EFDFFF7A0FD34
:100D8C00337801221F4919441F4801F0DAFE2B78F1
:100D9C0001221E4919441E4801F0D3FE00F035F91A
:100DAC0000F061F90321204600F052F9194800F0D7
:100DBC0021F92146012000F04BF9174800F01AF9EF
:100DCC000C21012000F044F9144800F013F9FFF74E
:100DDC00C3FDFFF7E7FEFFF7E3FCFFF713FEFFF79A
:100DEC001BFCFFF753FCFFF767FEF0E74401002004
:100DFC008C010020BA000020BC000020BB000020A9
:100E0C00BD000020C0000020D40100200001002003
:100E1C0018020020082C0008142C0008182C0008BC
:100E2C002DE9F0438DB000240794089409940A949A
:100E3C000B9400944A4B1A6B42F010021A631A6B13
:100E4C0002F010020092009A01941A6B42F02002F8
:100E5C001A631A6B02F020020192019A02941A6B27
:100E6C0042F080021A631A6B02F080020292029A1C
:100E7C0003941A6B42F008021A631A6B02F0080210
:100E8C000392039A04941A6B42F040021A631A6B91
:100E9C0002F040020492049A05941A6B42F001028B
:100EAC001A631A6B02F001020592059A06941A6BEA
:100EBC0042F004021A631B6B03F004030693069BB7
:100ECC00DFF8AC9022463F21484601F059F9DFF893
:100EDC00A480224640F2FF11404601F051F9214F07
:100EEC00224646F20201384601F04AF91E4E2246CD
:100EFC004FF48051304601F043F93F23079301250D
:100F0C00089509940A9407A9484601F03BF840F269
:100F1C00FF130793089509940A9407A9404601F01A
:100F2C0031F846F202030793089509940A9407A92D
:100F3C00384601F027F80C2307930894099507A964
:100F4C000A4801F01FF84FF4805307930895099451
:100F5C000A9407A9304601F015F80DB0BDE8F083EE
:100F6C0000380240000C0240000002400018024011
:100F7C00001002400014024010B50B4C636923F0C2
:100F8C000F031843606101222021204601F0F8F87C
:100F9C00012001F017FA00222021204601F0F0F880
:100FAC00012001F00FFA10BD0010024010B50446EC
:100FBC0000221021054801F0E3F82009FFF7DCFFBF
:100FCC0004F00F00FFF7D8FF10BD00BF0010024067
:100FDC0010B5044601221021054801F0D1F8200972
:100FEC00FFF7CAFF04F00F00FFF7C6FF10BD00BFEC
:100FFC000010024038B50546002402E0FFF7E8FF78
:10100C000134285D0028F9D138BD08B5322001F033
:10101C00D9F90220FFF7CAFF2820FFF7C7FF0120EC
:10102C0001F0D0F90820FFF7C1FF012001F0CAF947
:10103C000120FFF7BBFF012001F0C4F90620FFF7E8
:10104C00B5FF012001F0BEF90C20FFF7AFFF08BD82
:10105C0008B528B941F08000C0B2FFF7A7FF08BD62
:10106C0041F0C000F8E708B50120FFF79FFF08BD6D
:10107C0000B587B000230293039304930593009368
:10108C0001931548154A0260C722426083606322AF
:10109C00C2604FF400720261836100F037FB90B9BB
:1010AC004FF48053029302A90B4800F068FB68B917
:1010BC000023009301936946074800F0DFFB40B919
:1010CC0007B05DF804FBFFF7E3FDE9E7FFF7E0FD90
:1010DC00EEE7FFF7DDFDF3E74401002000040040DC
:1010EC0000B587B0002302930393049305930093F8
:1010FC0001931648164A0260C7224260836040F290
:10110C00E732C2604FF400720261836100F0FEFAB4
:10111C0090B94FF48053029302A90C4800F02FFBB6
:10112C0068B90023009301936946084800F0A6FBB8
:10113C0040B907B05DF804FBFFF7AAFDE9E7FFF73C
:10114C00A7FDEEE7FFF7A4FDF3E700BF8C0100203D
:10115C000008004000B583B00368184A934205D0DC
:10116C00174A934216D003B05DF804FB002100919E
:10117C00144B1A6C42F002021A641B6C03F002034B
:10118C000093009B0A461D2001F070F81D2001F011
:10119C00A5F8E8E7002101910A4B1A6C42F0040211
:1011AC001A641B6C03F004030193019B0A461E2076
:1011BC0001F05CF81E2001F091F8D4E70004004027
:1011CC00000800400038024008B50A480A4B03608A
:1011DC004FF49643436000238360C36003610C2289
:1011EC0042618361C36101F02BFA00B908BDFFF7BE
:1011FC004FFDFBE7D4010020004C004008B50A4825
:10120C000A4B03604FF49643436000238360C36032
:10121C0003610C2242618361C36101F011FA00B9D0
:10122C0008BDFFF735FDFBE7180200200050004019
:10123C00F0B58BB00023059306930793089309939D
:10124C0003683A4A934204D0394A93422DD00BB0EA
:10125C00F0BD00240094374B1A6C42F400221A643F
:10126C001A6C02F400220092009A01941A6B42F05C
:10127C0004021A631B6B03F004030193019B4FF4EC
:10128C0040630593022306930323089308230993D1
:10129C0005A9294800F076FE22462146342000F0AC
:1012AC00E5FF342001F01AF8D1E700240294214B19
:1012BC001A6C42F480121A641A6C02F480120292B4
:1012CC00029A03941A6B42F004021A631A6B02F02E
:1012DC0004020392039A04941A6B42F008021A63F4
:1012EC001B6B03F008030493049B4FF4805305938A
:1012FC0002270697032608960825099505A90E4886
:10130C0000F040FE04230593069707940896099570
:10131C0005A90A4800F036FE22462146352000F089
:10132C00A5FF352000F0DAFF91E700BF004C00402C
:10133C00005000400038024000080240000C0240FF
:10134C00FEE7FEE7FEE7FEE7FEE7704770477047F3
:10135C0008B501F025F808BD08B5024800F0B4F84E
:10136C0008BD00BF4401002008B5024800F0ACF8ED
:10137C0008BD00BF8C01002008B5024801F084FABA
:10138C0008BD00BFD401002008B5024801F07CFA6A
:10139C0008BD00BF1802002000B583B000210091E9
:1013AC000C4B5A6C42F480425A645A6C02F48042E0
:1013BC000092009A01911A6C42F080521A641B6CD4
:1013CC0003F080530193019B072000F03DFF03B015
:1013DC005DF804FB0038024010B4036A046A24F080
:1013EC0001040462846924F0F00C4CEA021223F02C
:1013FC000A030B43826103625DF8044B704710B41F
:10140C00046A24F0100404628469036A24F4704CA6
:10141C004CEA023223F0A00343EA01138261036217
:10142C005DF8044B7047836823F070030B4343F063
:10143C00070383607047000090F83D30DBB2012B4E
:10144C0037D1022380F83D300268D36843F00103A2
:10145C00D3600368194A934220D0B3F1804F1DD05A
:10146C00A2F57C42934219D002F58062934215D0CA
:10147C0002F58062934211D002F5784293420DD06E
:10148C0002F57052934209D0A2F59432934205D0E2
:10149C001A6842F001021A60002070479A6802F044
:1014AC000702062A07D01A6842F001021A600020CF
:1014BC007047012070470020704700BF00000140BA
:1014CC00704770477047704710B5044603681A6937
:1014DC0012F0020F11D0DA6812F0020F0DD06FF07B
:1014EC0002021A610123037703689B6913F0030F4F
:1014FC0070D0FFF7E6FF0023237723681A6912F0F8
:10150C00040F12D0DA6812F0040F0ED06FF0040240
:10151C001A610223237723689B6913F4407F5FD001
:10152C002046FFF7CEFF0023237723681A6912F0B9
:10153C00080F12D0DA6812F0080F0ED06FF0080204
:10154C001A61042323772368DB6913F0030F4ED051
:10155C002046FFF7B6FF0023237723681A6912F0A1
:10156C00100F12D0DA6812F0100F0ED06FF01002BC
:10157C001A61082323772368DB6913F4407F3DD07D
:10158C002046FFF79EFF0023237723681A6912F089
:10159C00010F03D0DA6812F0010F36D123681A69F3
:1015AC0012F0800F03D0DA6812F0800F34D1236868
:1015BC001A6912F0400F03D0DA6812F0400F32D1E2
:1015CC0023681A6912F0200F03D0DA6812F0200F8A
:1015DC0030D110BDFFF774FF2046FFF773FF8AE789
:1015EC002046FFF76DFF2046FFF76CFF9BE7204678
:1015FC00FFF766FF2046FFF765FFACE72046FFF7D5
:10160C005FFF2046FFF75EFFBDE76FF001021A6136
:10161C002046FFF7EFFAC1E76FF080021A6120460F
:10162C0000F073F9C3E76FF040021A612046FFF730
:10163C004AFFC5E76FF020021A61204600F064F9FA
:10164C00C7E700000368304A904212D0B0F1804FD7
:10165C000FD0A2F57C4290420BD002F580629042F2
:10166C0007D002F58062904203D002F57842904296
:10167C0003D123F070034A681343234A90422AD0C3
:10168C00B0F1804F27D0A2F57C42904223D002F5D6
:10169C00806290421FD002F5806290421BD002F50E
:1016AC007842904217D002F57052904213D002F556
:1016BC00806290420FD002F5806290420BD0A2F56E
:1016CC009832904207D002F58062904203D002F526
:1016DC008062904203D123F44073CA68134323F011
:1016EC0080034A69134303608B68C3620B6883628F
:1016FC00054B984203D003F58063984201D10B69E6
:10170C0003630123436170470000014040B310B5EF
:10171C00044690F83D30F3B1022384F83D30214665
:10172C0051F8040BFFF78EFF012384F8463084F840
:10173C003E3084F83F3084F8403084F8413084F8EF
:10174C00423084F8433084F8443084F8453084F8CF
:10175C003D30002010BD80F83C30FFF7FBFCDBE790
:10176C000120704710B4846824F47F4C42EA0322B1
:10177C000A4342EA0C0282605DF8044B704790F811
:10178C003C30012B78D010B50446012380F83C3056
:10179C00022380F83D300268936823F47F4323F0E2
:1017AC00770393600B68602B4CD029D8402B54D016
:1017BC000CD9502B22D1CA6849680068FFF70CFE7F
:1017CC0050212068FFF72FFE002005E0202B0DD0C4
:1017DC0009D9302B0AD00120012384F83D30002395
:1017EC0084F83C3010BD0BB1102B05D11946206884
:1017FC00FFF719FE0020EFE70120EDE70120EBE7F2
:10180C00B3F5805F34D0B3F5005F0CD1CB684A6878
:10181C0089680068FFF7A6FF2268936843F4804349
:10182C0093600020D8E7702B24D1CB684A68896874
:10183C000068FFF797FF2268936843F07703936083
:10184C000020C9E7CA6849680068FFF7D8FD602125
:10185C002068FFF7E8FD0020BEE7CA684968006809
:10186C00FFF7BAFD40212068FFF7DDFD0020B3E74C
:10187C000020B1E70120AFE70220704790F83C3020
:10188C00012B3DD010B4012380F83C30022380F8AA
:10189C003D3003685A689C6822F0700C0A6842EA72
:1018AC000C025A600368174A93421AD0B3F1804F66
:1018BC0017D0A2F57C42934213D002F5806293427A
:1018CC000FD002F5806293420BD002F5784293421E
:1018DC0007D002F57052934203D0A2F59432934292
:1018EC0004D124F080044A6814439C60012380F8DE
:1018FC003D30002380F83C3018465DF8044B7047AF
:10190C00022070470000014070477047002800F02B
:10191C00E08170B582B00446036813F0010F3BD030
:10192C009F4B9B6803F00C03042B2CD09C4B9B68A7
:10193C0003F00C03082B21D06368B3F5803F4FD024
:10194C00B3F5A02F52D0964B1A6822F480321A604D
:10195C001A6822F480221A606368002B50D000F0C1
:10196C002BFD05468E4B1B6813F4003F14D100F081
:10197C0023FD401B6428F5D90320B1E1884B5B683B
:10198C0013F4800FD8D0864B1B6813F4003F03D0A0
:10199C006368002B00F09F81236813F0020F54D072
:1019AC007F4B9B6813F00C0F3ED07D4B9B6803F074
:1019BC000C03082B33D0E368002B68D0794B012241
:1019CC001A6000F0F9FC0546754B1B6813F0020F0A
:1019DC0054D100F0F1FC401B0228F5D903207FE123
:1019EC006F4A136843F480331360B5E76C4B1A6885
:1019FC0042F480221A601A6842F480321A60ABE713
:101A0C0000F0DAFC0546664B1B6813F4003FC3D0AC
:101A1C0000F0D2FC401B6428F5D9032060E1604B38
:101A2C005B6813F4800FC6D15D4B1B6813F0020F7B
:101A3C0003D0E368012B40F05081594A136823F01E
:101A4C00F803216943EAC1031360236813F0080FFC
:101A5C0042D063696BB3534B0122C3F8802E00F064
:101A6C00ABFC05464E4B5B6F13F0020F34D100F00C
:101A7C00A3FC401B0228F5D9032031E1484A136826
:101A8C0023F0F803216943EAC1031360DDE7454BFA
:101A9C0000221A6000F090FC0546414B1B6813F0C5
:101AAC00020FD2D000F088FC401B0228F5D903208D
:101ABC0016E13C4B0022C3F8802E00F07DFC05465D
:101ACC00374B5B6F13F0020F06D000F075FC401B18
:101ADC000228F5D9032003E1236813F0040F77D013
:101AEC002F4B1B6C13F0805F33D1002301932C4BD5
:101AFC001A6C42F080521A641B6C03F080530193F1
:101B0C00019B0125284B1B6813F4807F23D0A3680D
:101B1C00012B34D0052B38D0214B1A6F22F0010247
:101B2C001A671A6F22F004021A67A368002B3DD0C3
:101B3C0000F042FC06461A4B1B6F13F0020F46D105
:101B4C0000F03AFC801B41F288339842F3D9032011
:101B5C00C6E00025D6E7144A136843F4807313607B
:101B6C0000F02AFC0646104B1B6813F4807FCED184
:101B7C0000F022FC801B0228F5D90320B0E0084AB3
:101B8C00136F43F001031367CFE7054B1A6F42F055
:101B9C0004021A671A6F42F001021A67C5E700BF08
:101BAC0000380240000047420070004000F004FC86
:101BBC000646524B1B6F13F0020F08D000F0FCFBD3
:101BCC00801B41F288339842F3D9032088E0EDB9A9
:101BDC00A369002B00F08380484A926802F00C0243
:101BEC00082A51D0022B17D0454B00221A6600F060
:101BFC00E3FB0446414B1B6813F0007F42D000F01E
:101C0C00DBFB001B0228F5D9032069E03B4A136C6F
:101C1C0023F080531364DBE7394B00221A6600F083
:101C2C00CBFB0546354B1B6813F0007F06D000F04C
:101C3C00C3FB401B0228F5D9032051E0E369226A5B
:101C4C001343626A43EA8213A26A5208013A43EAD6
:101C5C000243E26A43EA0263284A5360284B01229A
:101C6C001A6600F0A9FB0446244B1B6813F0007F96
:101C7C0006D100F0A1FB001B0228F5D903202FE0B0
:101C8C0000202DE000202BE0012B2BD01B4B5B68A0
:101C9C0003F48001E269914226D103F03F02216AEC
:101CAC008A4223D1616A47F6C0721A40B2EB811F97
:101CBC001ED103F44031A26A5208013AB1EB024F33
:101CCC0018D103F07063E26AB3EB026F14D10020F9
:101CDC0006E001207047012002E0012000E0002016
:101CEC0002B070BD0120FBE70120F9E70120F7E706
:101CFC000120F5E70120F3E70120F1E7003802406D
:101D0C000000474208B5314B9B6803F00C03042BD1
:101D1C0057D0082B57D12D4B5A6802F03F025B6805
:101D2C0013F4800F2AD0294B5968C1F3881C4FEA51
:101D3C004C11B1EB0C006EEB0E0E4FEA8E1343EA16
:101D4C0090638101091A63EB0E03DB0043EA5173C4
:101D5C00C90011EB0C0C43F10003590200234FEAAC
:101D6C004C2041EADC51FEF7D5FA184B5B68C3F303
:101D7C00014301335B00B0FBF3F025E0134B5968D2
:101D8C00C1F3881C4FEA4C11B1EB0C006EEB0E0E3C
:101D9C004FEA8E1343EA90638101091A63EB0E0339
:101DAC00DB0043EA5173C90011EB0C0C43F1000347
:101DBC00990200234FEA8C2041EA9C51FEF7AAFAC3
:101DCC00D3E7034800E0034808BD00BF00380240D9
:101DDC0000127A000024F400002800F09B8070B5FB
:101DEC000D4604464F4B1B6803F00F038B4208D281
:101DFC00CBB24C4A1370136803F00F038B4240F0C4
:101E0C008B80236813F0020F17D013F0040F04D04B
:101E1C00454A936843F4E0539360236813F0080F2A
:101E2C0004D0414A936843F4604393603E4A9368FC
:101E3C0023F0F003A1680B439360236813F0010FA8
:101E4C0032D06368012B21D09A1E012A25D9364A3B
:101E5C00126812F0020F61D033498A6822F0030233
:101E6C0013438B6000F0A8FA06462F4B9B6803F0D7
:101E7C000C036268B3EB820F16D000F09DFA801B46
:101E8C0041F288339842F0D9032042E0264A126886
:101E9C0012F4003FE0D101203BE0234A126812F01B
:101EAC00007FD9D1012034E01E4B1B6803F00F03D7
:101EBC00AB4207D9EAB21B4B1A701B6803F00F0335
:101ECC00AB422DD1236813F0040F06D0164A936849
:101EDC0023F4E053E1680B439360236813F0080F7D
:101EEC0007D0114A936823F46043216943EAC10384
:101EFC009360FFF707FF0C4B9B68C3F303130B4A6C
:101F0C00D35CD8400A4B18600A4B186800F008FAEA
:101F1C00002070BD012070470120FAE70120F8E78E
:101F2C000120F6E7003C0240003802401C2C00085F
:101F3C004400002040000020014B1868704700BF8F
:101F4C004400002008B5FFF7F7FF044B9B68C3F370
:101F5C008223034AD35CD84008BD00BF003802403E
:101F6C002C2C000808B5FFF7E7FF044B9B68C3F364
:101F7C004233034AD35CD84008BD00BF003802404E
:101F8C002C2C000800230F2B00F2F18070B582B0CE
:101F9C0061E085685E000324B44025EA0405CC6842
:101FAC00B4402C438460456825EA02054C68C4F3B0
:101FBC0000129A402A4342605BE0DC08083450F877
:101FCC00246003F0070295000F22AA4026EA020EB5
:101FDC000A69AA4042EA0E0240F824205DE0092278
:101FEC0000E0002202FA0EF22A430234604D45F85A
:101FFC002420604A94686FEA0C0224EA0C054E68AF
:10200C0016F4801F01D04CEA04055A4CA560E46814
:10201C0002EA04054E6816F4001F01D04CEA0405D0
:10202C00544CE560646802EA04054E6816F4003FFF
:10203C0001D04CEA04054F4C6560246822404D6881
:10204C0015F4803F01D04CEA04024A4C2260013363
:10205C000F2B00F28A8001229A400C6804EA020CD1
:10206C0032EA0404F3D14C6804F00304013C012C63
:10207C008FD94A6802F00302032A09D0C4685D00B4
:10208C000322AA4024EA02048A68AA402243C260BE
:10209C004A6802F00302022A8FD004684FEA430E0A
:1020AC00032202FA0EF224EA02044A6802F0030246
:1020BC0002FA0EF2224302604A6812F4403FC6D084
:1020CC00002201922C4A546C44F480445464526CA7
:1020DC0002F480420192019A9C08A51C244A52F8F1
:1020EC00255003F003024FEA820E0F2202FA0EF281
:1020FC0025EA0205214A90423FF473AF02F5806253
:10210C00904222D002F58062904220D002F580628B
:10211C0090421ED002F5806290421CD002F5806283
:10212C0090421AD002F58062904218D002F580627B
:10213C00904216D002F58062904214D002F5806273
:10214C0090423FF44CAF0A224CE701224AE70222AC
:10215C0048E7032246E7042244E7052242E7062229
:10216C0040E707223EE708223CE702B070BD70470B
:10217C0000380140003C01400038024000000240A1
:10218C000AB18161704709048161704770B50446DA
:10219C00866D00F011F994F83530DBB2022B06D0C5
:1021AC0080236365002384F83430012070BD05461C
:1021BC002268136823F0160313602268536923F016
:1021CC0080035361236CE3B12268136823F0080386
:1021DC0013602268136823F00103136023681B68E3
:1021EC0013F0010F11D000F0E7F8431B052BF5D9C4
:1021FC0020236365032084F83500002384F83430F1
:10220C00D4E7A36C002BDFD1E3E7E26D3F239340CF
:10221C00B360012384F83530002084F83400C5E71E
:10222C0090F83530DBB2022B03D0802343650120BC
:10223C007047052380F835300268136823F00103DA
:10224C001360002070470000074AD36823F4E06352
:10225C001B041B0C000200F4E060034343F0BF635B
:10226C0043F40033D360704700ED00E000B5194B28
:10227C00DB68C3F30223C3F1070CBCF1040F28BFC6
:10228C004FF0040C03F1040EBEF1060F18D9033BFA
:10229C004FF0FF3E0EFA0CFC21EA0C0199400EFAAD
:1022AC0003F322EA0303194300280BDB0901C9B22B
:1022BC0000F1604000F5614080F800135DF804FB0C
:1022CC000023E5E700F00F000901C9B2024B1954D5
:1022DC00F4E700BF00ED00E014ED00E0002807DBA0
:1022EC0000F01F02400901239340024A42F82030BB
:1022FC00704700BF00E100E00138B0F1807F0BD2E5
:10230C004FF0E0235861054AF02182F82310002099
:10231C00986107221A6170470120704700ED00E0B8
:10232C0010B504460E4B18784FF47A73B3FBF0F3E8
:10233C000C4A1068B0FBF3F0FFF7DEFF68B90F2C06
:10234C0001D901200AE0002221464FF0FF30FFF7AF
:10235C008DFF054B1C60002000E0012010BD00BF6C
:10236C003E000020440000204000002008B50B4B2C
:10237C001A6842F400721A601A6842F480621A6099
:10238C001A6842F480721A600320FFF75DFF002088
:10239C00FFF7C6FFFFF700F8002008BD003C024025
:1023AC00034A1168034B1B780B441360704700BF42
:1023BC005C0200203E000020014B1868704700BFF3
:1023CC005C02002038B50446FFF7F6FF0546B4F171
:1023DC00FF3F02D0044B1B781C44FFF7EDFF401B62
:1023EC00A042FAD338BD00BF3E000020026802F1C3
:1023FC000C0353E8003F23F490730C3242E8003195
:10240C000029F3D1026802F1140353E8003F23F0D2
:10241C000103143242E800310029F3D1036B012B84
:10242C0005D0202380F83E300023036370470268F8
:10243C0002F10C0353E8003F23F010030C3242E886
:10244C0000310029F3D1ECE790F83D30DBB2212BC1
:10245C0001D0022070478368B3F5805F17D0036A00
:10246C005A1C02621A7803685A60C38C9BB2013BF7
:10247C009BB2C3844BB90268D36823F08003D3604A
:10248C000268D36843F04003D360002070470369AF
:10249C00002BE4D1036A1B880268C3F30803536062
:1024AC00036A02330362E0E738B504460268136935
:1024BC0023F44053C1680B431361836802691343CF
:1024CC0042691343C2691A430168CB6823F416436B
:1024DC0023F00C031343CB600268536923F440735D
:1024EC0081690B4353610368314A934206D002F56C
:1024FC008062934202D0FFF725FD01E0FFF732FD29
:10250C00E369B3F5004F29D00021031849411B188A
:10251C0041F10001C90041EA5371DB0018186368EE
:10252C004FEA83024FEA937341F10001FDF7F2FE8B
:10253C00204DA5FB00325109642303FB11031B0141
:10254C003233A5FB03235B0903F0F00202EB01120B
:10255C0003F00F03216813448B6038BD002302186D
:10256C0043EB0301121841F10001C90041EA527119
:10257C00D200101841F10001626892185B41FDF71E
:10258C00C9FE0C4DA5FB00325109642303FB11035A
:10259C00DB003233A5FB03235B095A0002F4F8720B
:1025AC0002EB011203F00703216813448B60D4E79C
:1025BC00001001401F85EB512DE9F84305460F46ED
:1025CC0016469946DDF820802C68246837EA040307
:1025DC000CBF4FF0010C4FF0000CB4452DD1B8F1ED
:1025EC00FF3FF1D0B8F1000F05D0FFF7E5FEA0EBEF
:1025FC0009004045E8D92A6802F10C0353E8003F72
:10260C0023F4D0730C3242E800310029F3D12A684C
:10261C0002F1140353E8003F23F00103143242E8A3
:10262C0000310029F3D1202385F83D3085F83E3068
:10263C00002385F83C30032000E00020BDE8F8833F
:10264C0058B310B5044690F83D300BB3242384F8EE
:10265C003D302268D36823F40053D3602046FFF743
:10266C0023FF2268136923F4904313612268536992
:10267C0023F02A0353612268D36843F40053D360D8
:10268C0000202064202384F83D3084F83E3010BDB7
:10269C0080F83C30FEF7CCFDD8E7012070472DE9DF
:1026AC00F04182B01E4690F83D30DBB2202B54D165
:1026BC0004460D469046002953D0002A53D090F87A
:1026CC003C30012B51D0012380F83C3000230364B3
:1026DC00212380F83D30FFF76FFE0746A4F82480D5
:1026EC00A4F82680A368B3F5805F05D04FF00008EE
:1026FC00002384F83C3012E0236913B14FF000083A
:10270C00F6E7A8460025F3E738F8023B2268C3F346
:10271C0008035360E28C92B2013A92B2E284E38CE9
:10272C009BB273B100963B46002280212046FFF7F6
:10273C0043FFE0B9002DE7D015F8012B23685A6050
:10274C00E8E700963B46002240212046FFF734FF85
:10275C0078B9202384F83D3000E0022002B0BDE8B7
:10276C00F0810120FAE70120F8E70220F6E70320C8
:10277C00F4E70320F2E7704708B50168CA6822F055
:10278C004002CA60202280F83D20FFF7F4FF0020B1
:10279C0008BD704708B5806B0023C385C384FFF761
:1027AC00F8FF08BD704790F83E30DBB2222B67D1A2
:1027BC008368B3F5805F4DD0826AB3F5805F04D037
:1027CC00002B54D10369002B51D103685B68137043
:1027DC00836A01338362C38D9BB2013B9BB2C38579
:1027EC00002B4FD100B583B00268D36823F02003CF
:1027FC00D3600268D36823F48073D3600268536992
:10280C0023F001035361202380F83E30036B012B2E
:10281C0033D100230363026802F10C0353E8003F39
:10282C0023F010030C3242E800310029F3D1036885
:10283C001A6812F0100F06D0002201921A68019249
:10284C005B680193019B818DFFF7ACFF002003B007
:10285C005DF804FB0269002AAED1826A03685B68EA
:10286C00C3F308031380836A02338362B3E70368FC
:10287C005B6803F07F031370AAE7FEF7D3F9E5E773
:10288C00022070470020704730B583B004460268C0
:10289C001368D068516913F00F0505D113F0200FA0
:1028AC0002D010F0200F19D12DB111F0010119D166
:1028BC0010F4907F16D1216B01297DD013F0800F7D
:1028CC0003D010F0800F40F0158113F0400F03D0AF
:1028DC0010F0400F40F0128103B030BD2046FFF7DE
:1028EC0062FFF9E713F0010F06D010F4807F03D0DC
:1028FC00226C42F00102226413F0040F04D019B1CF
:10290C00226C42F00202226413F0020F04D019B1BF
:10291C00226C42F00402226413F0080F07D010F06E
:10292C00200F00D119B1226C42F008022264226CF3
:10293C00002AD1D013F0200F02D010F0200F29D193
:10294C0023685B6903F04003226C12F0080F00D17E
:10295C0063B32046FFF74AFD23685B6913F0400F11
:10296C0020D0226802F1140353E8003F23F0400307
:10297C00143242E800310029F3D1A36B73B1614AE0
:10298C001A65A06BFFF74CFC0028A5D0A06B036D5B
:10299C009847A1E72046FFF706FFD1E72046FFF74F
:1029AC00F8FE99E72046FFF7F4FE95E72046FFF77F
:1029BC00F0FE002323648FE713F0100F3FF47EAF7B
:1029CC0010F0100F3FF47AAF0023019313680193BA
:1029DC0053680193019B536913F0400F50D0A26BC5
:1029EC0013685B689BB2002B3FF476AFA18D9942C4
:1029FC007FF672AFE385D369B3F5807F37D0226859
:102A0C0002F10C0353E8003F23F480730C3242E8CC
:102A1C0000310029F3D1226802F1140353E8003F7E
:102A2C0023F00103143242E800310029F3D122686B
:102A3C0002F1140353E8003F23F04003143242E840
:102A4C0000310029F3D1202384F83E300023236386
:102A5C00226802F10C0353E8003F23F010030C3200
:102A6C0042E800310029F3D1A06BFFF78FFBA18D59
:102A7C00E38D9BB2C91A89B22046FFF793FE2BE770
:102A8C00A18DE38D9BB2C91A89B2E38D9BB2002B49
:102A9C003FF422AF00293FF41FAF226802F10C0370
:102AAC0053E8003F23F490730C3242E800300028C6
:102ABC00F3D1226802F1140353E8003F23F0010321
:102ACC00143242E800300028F3D1202384F83E3041
:102ADC0000232363226802F10C0353E8003F23F028
:102AEC0010030C3242E800300028F3D12046FFF7E7
:102AFC0059FEF1E62046FFF7A7FCEDE62046FFF76E
:102B0C003BFEE9E6A127000881628285C28500238D
:102B1C000364222280F83E2080F83C30036923B104
:102B2C000268D36843F48073D3600268536943F03E
:102B3C00010353610268D36843F02003D360002083
:102B4C00704708B590F83E30DBB2202B0DD171B137
:102B5C007AB190F83C30012B0DD0012380F83C3039
:102B6C0000230363FFF7D0FF00E0022008BD012023
:102B7C00FCE70120FAE70220F8E70000034AD2F84C
:102B8C00883043F47003C2F88830704700ED00E0E1
:102B9C00DFF834D00D480E490E4A002302E0D45819
:102BAC00C4500433C4188C42F9D30B4A0B4C002389
:102BBC0001E013600432A242FBD3FFF7DFFFFDF705
:102BCC0033FBFEF7BBF87047000003200000002029
:102BDC0048000020442C000848000020600200201F
:102BEC00FEE70000F8B500BFF8BC08BC9E46704775
:0C2BFC00F8B500BFF8BC08BC9E4670474E
:102C0800544554524144594E4500000044323A005C
:102C180044313A00000000000000000001020304F3
:0C2C280006070809000000000102030478
:082C34001CD7FF7F0100000026
:042C3C001502000875
:042C4000ED0100089A
:102C4400FAFA0000303132333435363738396162BC
:102C5400636465662D0100007E306D79335B5F70BF
:102C64007F7B7D1F0D3D6F4701000000616263643F
:102C740065660000313233343536373839000100A7
:082C8400100000000024F40020
:0400000508002B9D27
:00000001FF
