:020000040800F2
:10000000000003200D2C0008BD130008BF130008DA
:10001000C1130008C3130008C51300080000000046
:10002000000000000000000000000000C7130008EE
:10003000C913000800000000CB130008CD1300080E
:100040005D2C00085D2C00085D2C00085D2C00086C
:100050005D2C00085D2C00085D2C00085D2C00085C
:100060005D2C00085D2C00085D2C00085D2C00084C
:100070005D2C00085D2C00085D2C00085D2C00083C
:100080005D2C00085D2C00085D2C00085D2C00082C
:100090005D2C00085D2C00085D2C00085D2C00081C
:1000A0005D2C00085D2C00085D2C00085D2C00080C
:1000B0005D2C00085D2C0008D51300085D2C00089D
:1000C0005D2C00085D2C00085D2C00085D2C0008EC
:1000D0005D2C00085D2C00085D2C00085D2C0008DC
:1000E0005D2C00085D2C00085D2C00085D2C0008CC
:1000F0005D2C00085D2C00085D2C00085D2C0008BC
:100100005D2C00085D2C00085D2C00085D2C0008AB
:10011000E5130008F51300085D2C00085D2C0008AD
:100120005D2C00085D2C00085D2C00085D2C00088B
:100130005D2C00085D2C00085D2C00085D2C00087B
:100140005D2C00085D2C00085D2C00085D2C00086B
:100150005D2C00085D2C00085D2C00085D2C00085B
:100160005D2C00085D2C00085D2C00085D2C00084B
:100170005D2C00085D2C00085D2C000800000000CC
:100180005D2C00085D2C00085D2C00085D2C00082B
:100190005D2C00085D2C00085D2C00085D2C00081B
:0C01A0005D2C00085D2C00085D2C0008A0
:1001AC000348044B834202D0034B03B118477047FA
:1001BC001C0000201C000020000000000548064B1D
:1001CC001B1AD90F01EBA301491002D0034B03B149
:1001DC00184770471C0000201C0000200000000085
:1001EC0010B5064C237843B9FFF7DAFF044B13B173
:1001FC000448AFF300800123237010BD1C000020C5
:10020C0000000000602C000808B5044B1BB1044929
:10021C000448AFF30080BDE80840CFE700000000C1
:10022C0020000020602C000870B50D4D0D4C641B97
:10023C00A4100026A64209D10B4D0C4C02F00AFD6D
:10024C00641BA4100026A64205D170BD55F8043BD2
:10025C0098470136EEE755F8043B98470136F2E72C
:10026C00F02C0008F02C0008F02C0008F42C0008EE
:10027C0002440346934200D1704703F8011BF9E78F
:10028C0053B94AB9002908BF00281CBF4FF0FF31F1
:10029C004FF0FF3000F078B9ADF1080C6DE904CEE9
:1002AC0000F006F8DDF804E0DDE9022304B0704745
:1002BC002DE9F047089D0E4604460F46002B4AD107
:1002CC008A42944665D9B2FA82F242B1C2F1200355
:1002DC00974020FA03F30CFA02FC1F4394404FEAB8
:1002EC001C4E1FFA8CF6B7FBFEF1230C0EFB11779C
:1002FC0043EA074301FB06F098420AD91CEB0303BF
:10030C0001F1FF3780F02081984240F21D810239C3
:10031C0063441B1AA4B2B3FBFEF00EFB103344EA89
:10032C00034400FB06F6A6420AD91CEB040400F1B8
:10033C00FF3380F00B81A64240F2088164440238FE
:10034C0040EA0140A41B00211DB1D4400023C5E9A3
:10035C000043BDE8F0878B4208D9002D00F0F180F6
:10036C000021C5E900060846BDE8F087B3FA83F121
:10037C0000294AD1B34202D3824200F20081841A8E
:10038C0066EB030201201746002DE2D0C5E90047B9
:10039C00DFE702B9FFDEB2FA82F2002A40F0948065
:1003AC00A1EB0C034FEA1C471FFA8CFE0121B3FB97
:1003BC00F7F607FB1630230C43EA00430EFB06F05E
:1003CC00984208D91CEB030306F1FF3802D298427D
:1003DC0000F2D28046461B1AA4B2B3FBF7F007FB1F
:1003EC00103344EA03440EFB00FEA64508D91CEB6F
:1003FC00040400F1FF3302D2A64500F2BA8018467D
:10040C00A4EB0E0440EA06409EE7C1F120078B40A6
:10041C0022FA07FC4CEA030C06FA01FE20FA07F458
:10042C0026FA07F344EA0E0400FA01F84FEA1C40DE
:10043C004FEA1449B3FBF0FE1FFA8CF600FB1E3397
:10044C0049EA03430EFB06F9994502FA01F20BD96E
:10045C001CEB03030EF1FF3A80F08980994540F2C2
:10046C008680AEF1020E6344A3EB0909A4B2B9FB7A
:10047C00F0F300FB139944EA094403FB06F6A64289
:10048C0008D91CEB040403F1FF306CD2A6426AD9E4
:10049C00023B644443EA0E40A41BA0FB02E6B442B8
:1004AC007346B14656D353D0002D6AD0B8EB030235
:1004BC0064EB090422FA01F304FA07F71F43CC405A
:1004CC00C5E90074002144E7C2F1200120FA01F3D0
:1004DC000CFA02FC26FA01F1964033434FEA1C4712
:1004EC001FFA8CFEB1FBF7F007FB1016190C41EA52
:1004FC00064100FB0EF68E4204FA02F408D91CEBFE
:10050C00010100F1FF3830D28E422ED902386144FD
:10051C00891B9BB2B1FBF7F607FB161143EA0143AB
:10052C0006FB0EF1994208D91CEB030306F1FF38C8
:10053C0017D2994215D9023E63445B1A46EA004130
:10054C0035E72946284604E73946E2E61846F7E639
:10055C00F045A9D2BEEB020366EB0C060138B1469E
:10056C00A2E74646E9E7034694E74046D0E7D6467D
:10057C007AE76444023843E7023E63442BE70846BB
:10058C0002E72946E5E600BF704700BF08B5154BEA
:10059C00984206D0144B98420ED0144B984216D069
:1005AC0008BD0621012000F0DDFD0E4B1B78104A22
:1005BC00D05C00F097FDF3E70F21012000F0D2FD95
:1005CC00094B1B780A4AD05C00F08CFDE8E70C2143
:1005DC00002000F0C7FD054B1B78054AD05C00F0ED
:1005EC0081FDDDE75600002055000020A200002010
:1005FC0000000020174B1B78EBB1164B00221A7031
:10060C00154A13780133DBB21370032B14D0134A41
:10061C0013780133DBB213707D2B05D913460022FE
:10062C001A700F4B01221A700E4A13780133DBB289
:10063C001370052B07D07047134600221A700A4B13
:10064C0001221A70E3E7134600221A70074B0122AD
:10065C001A70F0E79D00002052000020540000208A
:10066C009F000020530000209E0000209B000020D3
:10067C0008B5244B1B7833B3224B00221A70224B43
:10068C001869224A13785B00DBB2137003F00E0377
:10069C001370C0F380010B4313701D490A7852008C
:1006AC00D2B20A7002F00E020A70C0F3C00002430C
:1006BC000A700C2B08D0032B10D0154B1B780C2B6D
:1006CC0011D0032B19D008BD0023124A1370124A03
:1006DC0013700121114800F0BDFCEEE703210F4817
:1006EC0000F0B8FCE9E700230A4A13700A4A1370B9
:1006FC0002210A4800F0AEFCE5E70421074800F0AF
:10070C00A9FCE0E79E00002000180240A000002099
:10071C00A10000209B000020EF00002058000020CA
:10072C0008B5174B5A781B789A4220D0144B1344B7
:10073C009B78022B0AD0032B1AD0124A12785AB18A
:10074C0011490A68501C0860137005E00D4B01221A
:10075C001A700D4B0D4A1A6009494B7801335A42F5
:10076C0003F03F0302F03F0258BF53424B7008BDE9
:10077C00044B00221A700521054800F06BFCEBE7D6
:10078C00AC0000209C000020A800002048000020A5
:10079C005800002070B504460D4600F0EEFC002D0C
:1007AC007DD10121002000F0DDFC614800F0ACFCA3
:1007BC00012C7CD0022C00F09A804FF47A7001F05E
:1007CC003BFE00F0DAFC0021084600F0CBFC594857
:1007DC0000F09AFC0C21002000F0C4FC564C574B46
:1007EC001B78E05C00F07EFC0021012000F0BAFCDC
:1007FC00534800F089FC0321012000F0B3FC514E5A
:10080C00B3781B09504D2B70E05C00F06BFC04219D
:10081C00012000F0A7FCB37803F00F032B70E05C11
:10082C0000F060FC0521012000F09CFC3A2000F057
:10083C0059FC0621012000F095FC444B1B78E05C30
:10084C0000F050FC0921012000F08CFC404800F025
:10085C005BFC0C21012000F085FC73781B092B70CC
:10086C00E05C00F03FFC0D21012000F07BFC737874
:10087C0003F00F032B70E05C00F034FC0E21012020
:10088C0000F070FC3A2000F02DFC0F21012000F04C
:10089C0069FC304B1B78E05C00F024FC70BD03213C
:1008AC00002000F05FFC2C4800F02EFC80E70221B9
:1008BC00012000F057FC294800F026FC0C210120F7
:1008CC0000F050FC1F4E73781B091F4D2B701A4CF7
:1008DC00E05C00F007FC0D21012000F043FC737874
:1008EC0003F00F032B70E05C00F0FCFB65E70221CA
:1008FC00012000F037FC1A4800F006FC0C21012006
:10090C0000F030FC0F4EB3781B090F4D2B700A4CC6
:10091C00E05C00F0E7FB0D21012000F023FCB37834
:10092C0003F00F032B70E05C00F0DCFB45E700BF2D
:10093C00782C0008AC2C000800000020A20000203D
:10094C00B82C00083C000020F000002056000020CD
:10095C00BC2C000855000020882C0008942C0008A2
:10096C00A02C000808B5184B5B78184A12789342F3
:10097C0012D08BB1144A9278F12A0DD0134A5278C6
:10098C0093420AD0114A9278934211D010480378BE
:10099C00013B0370FFF7FAFD08BD00210120FFF7B2
:1009AC00F9FE0A4B00225A700A4B10221A70EDE71E
:1009BC0000210220FFF7EEFE044B00229A70064B3A
:1009CC0010221A70E2E700BF4C0000203C0000200F
:1009DC00A200002055000020560000202C4B197856
:1009EC0093F801C0987881EA0C024240DB7893427C
:1009FC004CD110B5274B5B78994214D0254A92788C
:100A0C00914224D0234C94F800E071450ED1BCF1F6
:100A1C00F40F0BD173B34AB91E4B9870012102200D
:100A2C00FFF7B8FE2BE0BCF1F20F00D010BD303850
:100A3C00C0B2194B1870194B1B789842F6D0164C53
:100A4C002046FFF7A3FD2278144B1A70EEE7BCF199
:100A5C00F20FEBD13038C0B2114B1870114B1B7820
:100A6C009842E3D00E4C2046FFF790FD22780D4BB8
:100A7C001A70DBE7607001210846FFF78BFE0A480D
:100A8C00037801330370FFF781FDCFE7704700BF98
:100A9C00480000203C00002055000020A30000204E
:100AAC0056000020A4000020A200002038B50F4CF6
:100ABC00022323706070A170E270484042402271A2
:100ACC00032363710A4D01224FF48051284601F033
:100ADC0091FB0A2306222146064801F018FE00224B
:100AEC004FF48051284601F085FB38BD4C000020A6
:100AFC00000002403C01002010B5794B1A785B785D
:100B0C009A4208D1774B1C78012C55D0022C00F05E
:100B1C00AE8034B110BD724800F0A9FA724B187057
:100B2C00F0E7714B1B78012B21D0022B2CD06F4B93
:100B3C001B78002BEED06D4B00221A706C4B1B787F
:100B4C00002B2FD03022F2216A48C05CFFF7AEFF99
:100B5C00674B1B78022B01D00133DCB2644B1C7049
:100B6C00604B02221A70644B00221A70D2E70123E8
:100B7C00624A1370624A137000225B490A70594929
:100B8C000B705A4B1A70C5E75C4B02221A7001228B
:100B9C005B4B1A70002354490B7052490A70534A2C
:100BAC001370B7E7574A12783132D2B2F421514858
:100BBC00C05CFFF77BFFCBE74B4B1B78032B18D0AC
:100BCC00042B1DD04E4B1B78002BA3D04C4B00227A
:100BDC001A704A4B1B78012B19D0022B2FD0424B89
:100BEC0000221A703F4B02221A70434B01221A70DA
:100BFC0090E7434B01221A703A4B00221A7089E796
:100C0C003F4B01221A70374B00221A7082E73E4B81
:100C1C001B78082B02D80133DBB200E000233A4CDE
:100C2C0023702046FFF7B2FC2378384A1370303318
:100C3C00DAB2F1212F4B5878FFF738FFCFE7344B5E
:100C4C001B780E2B11D80133DBB2314C23702046AC
:100C5C00FFF79CFC23782F4A13703033DAB2F12162
:100C6C00244B9878FFF722FFB9E70A23EDE71E4BD8
:100C7C001B78052B21D01D4B1B78002B3FF44AAF62
:100C8C001A4B00221A70244BDA7899785878FFF7AF
:100C9C000DFF224A13780133DBB213700A2B7FF459
:100CAC0039AF154B1A780F4B1A7000230E4A13707C
:100CBC001A4A1370FFF756FE2CE7FFF78FFE0E4B08
:100CCC001B78012B05D0074A1370074B00221A70B2
:100CDC0020E7002212490A7009490A70F3E700BFA5
:100CEC0058000020EF000020570000209B0000203F
:100CFC00380000203C000020A60000209A000020B4
:100D0C009F000020A200002055000020A30000201E
:100D1C0056000020A40000204C000020F100002010
:100D2C0054000020034B834200D07047024B012239
:100D3C001A70FAE7F40000209D000020074B834254
:100D4C0000D0704710B5064C2178064800F082F9A7
:100D5C0001222146014801F02CFF10BD3C0100206E
:100D6C00EE000020AC00002072B6FEE700B595B096
:100D7C003022002108A8FFF77BFA00230393049389
:100D8C000593069307930193204A116C41F080510F
:100D9C001164126C02F080520192019A02931C4A67
:100DAC00136823F4404343F480431360136803F443
:100DBC0040430293029B012308934FF48033099321
:100DCC0002230E934FF480020F92042210926022A1
:100DDC00119212930323139308A800F0C7FD88B94E
:100DEC000F23039302230493802305934FF4805322
:100DFC0006930793012103A801F022F820B915B03E
:100E0C005DF804FBFFF7B0FFFFF7AEFF00380240C0
:100E1C000070004080B501F0E3FAFFF7A7FF00F087
:100E2C008DF800F0AFF900F007FA00F01FFA334824
:100E3C0000F032FB00224FF48051314801F0DAF916
:100E4C0001223049304801F0B4FE304E102333708B
:100E5C00DFF8E48088F800302D4D00242C702D4BE9
:100E6C001C702D4BFF221A705C709C702B4B1C70ED
:100E7C004FF47A7001F0E0FA00F051F900F07DF9CE
:100E8C002146204600F06EF9254800F03DF90C2172
:100E9C00204600F067F9234F2B78F85C00F022F91C
:100EAC002146012000F05EF91F4800F02DF90621C3
:100EBC00012000F057F998F80030F85C00F012F9B6
:100ECC000921012000F04EF9184800F01DF90F21FE
:100EDC00012000F047F93378F85C00F003F9327820
:100EEC00134B1A702A78134B1A70FFF783FBFFF71A
:100EFC00BFFBFFF715FCFFF7FFFDF6E7F400002042
:100F0C0000000240EE0000203C01002055000020B3
:100F1C00A2000020380000203C000020EF00002040
:100F2C00AC2C000800000020C02C0008C82C0008C5
:100F3C00A3000020A5000020560000202DE9F04160
:100F4C008CB000240794089409940A940B9401948F
:100F5C003B4B1A6B42F010021A631A6B02F0100230
:100F6C000192019A02941A6B42F080021A631A6B76
:100F7C0002F080020292029A03941A6B42F0400231
:100F8C001A631A6B02F040020392039A04941A6BD0
:100F9C0042F001021A631A6B02F001020492049AE5
:100FAC0005941A6B42F004021A631A6B02F00402E5
:100FBC000592059A06941A6B42F008021A631B6B91
:100FCC0003F008030693069BDFF8848022463F213A
:100FDC00404601F00FF91B4F22464FF48051384622
:100FEC0001F008F9184E22460221304601F002F9B0
:100FFC003F2307930125089509940A9407A94046B5
:10100C0000F0F4FF0C2307930894099507A90F48E7
:10101C0000F0ECFF4FF480530793089509940A9461
:10102C0007A9384600F0E2FF0223079308950994BC
:10103C000A9407A9304600F0D9FF0CB0BDE8F08146
:10104C000038024000000240000C02400018024030
:10105C00001002400378C218917001335A4203F019
:10106C003F0302F03F0258BF5342037070470246E1
:10107C004378C11888780133594203F03F0301F0DB
:10108C003F0158BF4B4253707047000010B50B4CDA
:10109C00636923F00F03184360610122202120466D
:1010AC0001F0A8F8012001F0C7F900222021204608
:1010BC0001F0A0F8012001F0BFF910BD00100240B2
:1010CC0010B5044600221021054801F093F82009C0
:1010DC00FFF7DCFF04F00F00FFF7D8FF10BD00BFD7
:1010EC000010024010B5044601221021054801F001
:1010FC0081F82009FFF7CAFF04F00F00FFF7C6FFC5
:10110C0010BD00BF0010024038B50546002402E0B7
:10111C00FFF7E8FF0134285D0028F9D138BD08B588
:10112C00322001F089F90220FFF7CAFF2820FFF7CF
:10113C00C7FF012001F080F90820FFF7C1FF012053
:10114C0001F07AF90120FFF7BBFF012001F074F9DF
:10115C000620FFF7B5FF012001F06EF90C20FFF718
:10116C00AFFF08BD08B528B941F08000C0B2FFF749
:10117C00A7FF08BD41F0C000F8E708B50120FFF754
:10118C009FFF08BD00B587B000230293039304931F
:10119C000593009301931648164A0260C7224260D9
:1011AC00836040F2E732C2604FF4007202618361E7
:1011BC0000F0DCFA90B94FF48053029302A90C486A
:1011CC0000F00DFB68B900230093019369460848B1
:1011DC0000F084FB40B907B05DF804FBFFF7C4FDD9
:1011EC00E9E7FFF7C1FDEEE7FFF7BEFDF3E700BF50
:1011FC00F40000200008004002680E4B9A4200D018
:10120C00704700B583B00021019103F50C331A6CC3
:10121C0042F004021A641B6C03F004030193019B5B
:10122C000A461E2001F05CF81E2001F091F803B074
:10123C005DF804FB0008004008B50A480A4B03603F
:10124C004FF49643436000238360C36003610C2218
:10125C0042618361C36101F02BFA00B908BDFFF74D
:10126C0083FDFBE73C010020004C004008B50A4818
:10127C000A4B03604FF49643436000238360C360C2
:10128C0003610C2242618361C36101F011FA00B960
:10129C0008BDFFF769FDFBE780010020005000400E
:1012AC00F0B58BB00023059306930793089309932D
:1012BC0003683A4A934204D0394A93422DD00BB07A
:1012CC00F0BD00240094374B1A6C42F400221A64CF
:1012DC001A6C02F400220092009A01941A6B42F0EC
:1012EC0004021A631B6B03F004030193019B4FF47C
:1012FC004063059302230693032308930823099361
:10130C0005A9294800F072FE22462146342000F03F
:10131C00E7FF342001F01CF8D1E700240294214BA4
:10132C001A6C42F480121A641A6C02F48012029243
:10133C00029A03941A6B42F004021A631A6B02F0BD
:10134C0004020392039A04941A6B42F008021A6383
:10135C001B6B03F008030493049B4FF48053059319
:10136C0002270697032608960825099505A90E4815
:10137C0000F03CFE04230593069707940896099504
:10138C0005A90A4800F032FE22462146352000F01D
:10139C00A7FF352000F0DCFF91E700BF004C0040B8
:1013AC00005000400038024000080240000C02408F
:1013BC00FEE7FEE7FEE7FEE7FEE770477047704783
:1013CC0008B501F027F808BD08B5024800F0ACF8E4
:1013DC0008BD00BFF400002008B5024801F08CFAEB
:1013EC0008BD00BF3C01002008B5024801F084FA9A
:1013FC0008BD00BF8001002000B583B00021009122
:10140C000C4B5A6C42F480425A645A6C02F480427F
:10141C000092009A01911A6C42F080521A641B6C73
:10142C0003F080530193019B072000F047FF03B0AA
:10143C005DF804FB0038024010B4036A046A24F01F
:10144C0001040462846924F0F00C4CEA021223F0CB
:10145C000A030B43826103625DF8044B704710B4BE
:10146C00036A23F0100303628469036A24F4704C4A
:10147C004CEA023223F0A00343EA011382610362B7
:10148C005DF8044B7047836823F070030B4343F003
:10149C00070383607047000090F83D30DBB2012BEE
:1014AC0037D1022380F83D300268D36843F0010342
:1014BC00D3600368194A934220D0B3F1804F1DD0FA
:1014CC00A2F57C42934219D002F58062934215D06A
:1014DC0002F58062934211D002F5784293420DD00E
:1014EC0002F57052934209D0A2F59432934205D082
:1014FC001A6842F001021A60002070479A6802F0E4
:10150C000702062A07D01A6842F001021A6000206E
:10151C007047012070470020704700BF0000014059
:10152C00704770477047704710B5044603681A69D6
:10153C0012F0020F11D0DA6812F0020F0DD06FF01A
:10154C0002021A610123037703689B6913F0030FEE
:10155C0070D0FFF7E6FF0023237723681A6912F097
:10156C00040F12D0DA6812F0040F0ED06FF00402E0
:10157C001A610223237723689B6913F4407F5FD0A1
:10158C002046FFF7CEFF0023237723681A6912F059
:10159C00080F12D0DA6812F0080F0ED06FF00802A4
:1015AC001A61042323772368DB6913F0030F4ED0F1
:1015BC002046FFF7B6FF0023237723681A6912F041
:1015CC00100F12D0DA6812F0100F0ED06FF010025C
:1015DC001A61082323772368DB6913F4407F3DD01D
:1015EC002046FFF79EFF0023237723681A6912F029
:1015FC00010F03D0DA6812F0010F36D123681A6993
:10160C0012F0800F03D0DA6812F0800F34D1236807
:10161C001A6912F0400F03D0DA6812F0400F32D181
:10162C0023681A6912F0200F03D0DA6812F0200F29
:10163C0030D110BDFFF774FF2046FFF773FF8AE728
:10164C002046FFF76DFF2046FFF76CFF9BE7204617
:10165C00FFF766FF2046FFF765FFACE72046FFF774
:10166C005FFF2046FFF75EFFBDE76FF001021A61D6
:10167C002046FFF757FBC1E76FF080021A61204646
:10168C0000F073F9C3E76FF040021A612046FFF7D0
:10169C004AFFC5E76FF020021A61204600F064F99A
:1016AC00C7E700000368304A904212D0B0F1804F77
:1016BC000FD0A2F57C4290420BD002F58062904292
:1016CC0007D002F58062904203D002F57842904236
:1016DC0003D123F070034A681343234A90422AD063
:1016EC00B0F1804F27D0A2F57C42904223D002F576
:1016FC00806290421FD002F5806290421BD002F5AE
:10170C007842904217D002F57052904213D002F5F5
:10171C00806290420FD002F5806290420BD0A2F50D
:10172C009832904207D002F58062904203D002F5C5
:10173C008062904203D123F44073CA68134323F0B0
:10174C0080034A69134303608B68C3620B6883622E
:10175C00054B984203D003F58063984201D10B6985
:10176C0003630123436170470000014040B310B58F
:10177C00044690F83D30F3B1022384F83D30214605
:10178C0051F8040BFFF78EFF012384F8463084F8E0
:10179C003E3084F83F3084F8403084F8413084F88F
:1017AC00423084F8433084F8443084F8453084F86F
:1017BC003D30002010BD80F83C30FFF71DFDDBE70D
:1017CC000120704710B4846824F47F4C42EA032251
:1017DC000A4342EA0C0282605DF8044B704790F8B1
:1017EC003C30012B78D010B50446012380F83C30F6
:1017FC00022380F83D300268936823F47F4323F082
:10180C00770393600B68602B4CD029D8402B54D0B5
:10181C000CD9502B22D1CA6849680068FFF70CFE1E
:10182C0050212068FFF72FFE002005E0202B0DD063
:10183C0009D9302B0AD00120012384F83D30002334
:10184C0084F83C3010BD0BB1102B05D11946206823
:10185C00FFF719FE0020EFE70120EDE70120EBE791
:10186C00B3F5805F34D0B3F5005F0CD1CB684A6818
:10187C0089680068FFF7A6FF2268936843F48043E9
:10188C0093600020D8E7702B24D1CB684A68896814
:10189C000068FFF797FF2268936843F07703936023
:1018AC000020C9E7CA6849680068FFF7D8FD6021C5
:1018BC002068FFF7E8FD0020BEE7CA6849680068A9
:1018CC00FFF7BAFD40212068FFF7DDFD0020B3E7EC
:1018DC000020B1E70120AFE70220704790F83C20D0
:1018EC00012A3DD010B40346012280F83C2002228C
:1018FC0080F83D2002685068946820F0700C0868ED
:10190C0040EA0C0050601A68164882421AD0B2F1B4
:10191C00804F17D0A0F57C40824213D000F5806038
:10192C0082420FD000F5806082420BD000F57840E7
:10193C00824207D000F57050824203D0A0F594305B
:10194C00824204D124F08004496821439160012231
:10195C0083F83D20002083F83C005DF8044B704771
:10196C00022070470000014070477047002800F0CB
:10197C00E08170B582B00446036813F0010F3BD0D0
:10198C009F4B9B6803F00C03042B2CD09C4B9B6847
:10199C0003F00C03082B21D06368B3F5803F4FD0C4
:1019AC00B3F5A02F52D0964B1A6822F480321A60ED
:1019BC001A6822F480221A606368002B50D000F061
:1019CC0035FD05468E4B1B6813F4003F14D100F017
:1019DC002DFD401B6428F5D90320B1E1884B5B68D1
:1019EC0013F4800FD8D0864B1B6813F4003F03D040
:1019FC006368002B00F09F81236813F0020F54D012
:101A0C007F4B9B6813F00C0F3ED07D4B9B6803F013
:101A1C000C03082B33D0E368002B68D0794B0122E0
:101A2C001A6000F003FD0546754B1B6813F0020F9E
:101A3C0054D100F0FBFC401B0228F5D903207FE1B8
:101A4C006F4A136843F480331360B5E76C4B1A6824
:101A5C0042F480221A601A6842F480321A60ABE7B2
:101A6C0000F0E4FC0546664B1B6813F4003FC3D042
:101A7C0000F0DCFC401B6428F5D9032060E1604BCE
:101A8C005B6813F4800FC6D15D4B1B6813F0020F1B
:101A9C0003D0E368012B40F05081594A136823F0BE
:101AAC00F803216943EAC1031360236813F0080F9C
:101ABC0042D063696BB3534B0122C3F8802E00F004
:101ACC00B5FC05464E4B5B6F13F0020F34D100F0A2
:101ADC00ADFC401B0228F5D9032031E1484A1368BC
:101AEC0023F0F803216943EAC1031360DDE7454B9A
:101AFC0000221A6000F09AFC0546414B1B6813F05B
:101B0C00020FD2D000F092FC401B0228F5D9032022
:101B1C0016E13C4B0022C3F8802E00F087FC0546F2
:101B2C00374B5B6F13F0020F06D000F07FFC401BAD
:101B3C000228F5D9032003E1236813F0040F77D0B2
:101B4C002F4B1B6C13F0805F33D1002301932C4B74
:101B5C001A6C42F080521A641B6C03F08053019390
:101B6C00019B0125284B1B6813F4807F23D0A368AD
:101B7C00012B34D0052B38D0214B1A6F22F00102E7
:101B8C001A671A6F22F004021A67A368002B3DD063
:101B9C0000F04CFC06461A4B1B6F13F0020F46D19B
:101BAC0000F044FC801B41F288339842F3D90320A7
:101BBC00C6E00025D6E7144A136843F4807313601B
:101BCC0000F034FC0646104B1B6813F4807FCED11A
:101BDC0000F02CFC801B0228F5D90320B0E0084A49
:101BEC00136F43F001031367CFE7054B1A6F42F0F5
:101BFC0004021A671A6F42F001021A67C5E700BFA8
:101C0C0000380240000047420070004000F00EFC1B
:101C1C000646524B1B6F13F0020F08D000F006FC67
:101C2C00801B41F288339842F3D9032088E0EDB948
:101C3C00A369002B00F08380484A926802F00C02E2
:101C4C00082A51D0022B17D0454B00221A6600F0FF
:101C5C00EDFB0446414B1B6813F0007F42D000F0B3
:101C6C00E5FB001B0228F5D9032069E03B4A136C05
:101C7C0023F080531364DBE7394B00221A6600F023
:101C8C00D5FB0546354B1B6813F0007F06D000F0E2
:101C9C00CDFB401B0228F5D9032051E0E369226AF1
:101CAC001343626A43EA8213A26A5208013A43EA76
:101CBC000243E26A43EA0263284A5360284B01223A
:101CCC001A6600F0B3FB0446244B1B6813F0007F2C
:101CDC0006D100F0ABFB001B0228F5D903202FE046
:101CEC0000202DE000202BE0012B2BD01B4B5B6840
:101CFC0003F48001E269914226D103F03F02216A8C
:101D0C008A4223D1616A47F6C0721A40B2EB811F36
:101D1C001ED103F44031A26A5208013AB1EB024FD2
:101D2C0018D103F07063E26AB3EB026F14D1002098
:101D3C0006E001207047012002E0012000E00020B5
:101D4C0002B070BD0120FBE70120F9E70120F7E7A5
:101D5C000120F5E70120F3E70120F1E7003802400C
:101D6C000000474208B5334B9B6803F00C03042B6F
:101D7C005BD0082B5BD12F4B5A6802F03F025B689B
:101D8C0013F4800F2CD02B4B5868C0F388104FEAFB
:101D9C00401CBCEB000C6EEB0E0E4FEA8E1343EAAC
:101DAC009C634FEA8C11B1EB0C0163EB0E03DB006F
:101DBC0043EA5173C90011EB000C43F100035902C3
:101DCC0000234FEA4C2041EADC51FEF759FA194B3B
:101DDC005B68C3F3014301335B00B0FBF3F027E016
:101DEC00144B5868C0F388104FEA401CBCEB000C35
:101DFC006EEB0E0E4FEA8E1343EA9C634FEA8C1186
:101E0C00B1EB0C0163EB0E03DB0043EA5173C90029
:101E1C0011EB000C43F10003990200234FEA8C20D4
:101E2C0041EA9C51FEF72CFAD1E7034800E0034845
:101E3C0008BD00BF0038024000127A000024F400F4
:101E4C00002800F09B8070B50D4604464F4B1B6874
:101E5C0003F00F038B4208D2CBB24C4A13701368B9
:101E6C0003F00F038B4240F08B80236813F0020FBA
:101E7C0017D013F0040F04D0454A936843F4E05391
:101E8C009360236813F0080F04D0414A936843F41D
:101E9C00604393603E4A936823F0F003A1680B43C0
:101EAC009360236813F0010F32D06368012B21D0AB
:101EBC009A1E012A25D9364A126812F0020F61D0F7
:101ECC0033498A6822F0030213438B6000F0AEFAA8
:101EDC0006462F4B9B6803F00C036268B3EB820F32
:101EEC0016D000F0A3FA801B41F288339842F0D947
:101EFC00032042E0264A126812F4003FE0D1012090
:101F0C003BE0234A126812F0007FD9D1012034E063
:101F1C001E4B1B6803F00F03AB4207D9EAB21B4BF5
:101F2C001A701B6803F00F03AB422DD1236813F01A
:101F3C00040F06D0164A936823F4E053E1680B4370
:101F4C009360236813F0080F07D0114A936823F4A9
:101F5C006043216943EAC1039360FFF703FF0C4B15
:101F6C009B68C3F303130B4AD35CD8400A4B18602D
:101F7C000A4B186800F00EFA002070BD0120704763
:101F8C000120FAE70120F8E70120F6E7003C0240C7
:101F9C0000380240D02C000818000020140000204B
:101FAC00014B1868704700BF1800002008B5FFF7F8
:101FBC00F7FF044B9B68C3F38223034AD35CD840DE
:101FCC0008BD00BF00380240E02C000808B5FFF740
:101FDC00E7FF044B9B68C3F34233034AD35CD840FE
:101FEC0008BD00BF00380240E02C000800230F2B76
:101FFC0000F2F68070B582B066E085684FEA430E59
:10200C00032404FA0EF425EA0405CC6804FA0EF451
:10201C002C438460446824EA02044A68C2F3001228
:10202C009A40224342605DE0DC08083450F82420DA
:10203C0003F00705AD004FF00F0E0EFA05FE22EA75
:10204C000E0E0A69AA4042EA0E0240F824205DE016
:10205C00092200E0002202FA0EF22A430234614DFA
:10206C0045F82420604A94686FEA0C0224EA0C05B7
:10207C004E6816F4801F01D04CEA04055A4CA5603A
:10208C00E46802EA04054E6816F4001F01D04CEA1D
:10209C000405554CE560646802EA04054E6816F4C4
:1020AC00003F01D04CEA04054F4C65602468224087
:1020BC004D6815F4803F01D04CEA04024A4C226072
:1020CC0001330F2B00F28A8001229A400C6804EA3B
:1020DC00020C32EA0404F3D14C6804F00304013C12
:1020EC00012C8AD94A6802F00302032A09D0C46879
:1020FC005D000322AA4024EA02048A68AA40224313
:10210C00C2604A6802F00302022A8DD004684FEACA
:10211C00430E032202FA0EF224EA02044A6802F089
:10212C00030202FA0EF2224302604A6812F4403FA4
:10213C00C6D0002201922D4A546C44F4804454645D
:10214C00526C02F480420192019A9C08A51C254A0B
:10215C0052F8255003F0030E4FEA8E0E0F2202FAAE
:10216C000EF225EA0205224A90423FF473AF02F5C3
:10217C008062904222D002F58062904220D002F51B
:10218C00806290421ED002F5806290421CD002F513
:10219C00806290421AD002F58062904218D002F50B
:1021AC008062904216D002F58062904214D002F503
:1021BC00806290423FF44CAF0A224CE701224AE77E
:1021CC00022248E7032246E7042244E7052242E7BD
:1021DC00062240E707223EE708223CE702B070BD2A
:1021EC00704700BF00380140003C014000380240FD
:1021FC00000002400AB18161704709048161704797
:10220C0070B50446866D00F011F994F83530DBB2E8
:10221C00022B06D080236365002384F83430012020
:10222C0070BD05462268136823F0160313602268FC
:10223C00536923F080035361236CE3B12268136864
:10224C0023F0080313602268136823F00103136062
:10225C0023681B6813F0010F11D000F0E7F8431B43
:10226C00052BF5D920236365032084F83500002362
:10227C0084F83430D4E7A36C002BDFD1E3E7E26DB4
:10228C003F239340B360012384F83530002084F859
:10229C003400C5E790F83530DBB2022B03D0802335
:1022AC00436501207047052380F8353002681368B8
:1022BC0023F001031360002070470000074AD36825
:1022CC0023F4E0631B041B0C000200F4E0600343E6
:1022DC0043F0BF6343F40033D360704700ED00E07C
:1022EC0000B5194BDB68C3F30223C3F1070CBCF137
:1022FC00040F28BF4FF0040C03F1040EBEF1060FBF
:10230C0018D9033B4FF0FF3E0EFA0CFC21EA0C01EE
:10231C0099400EFA03FE22EA0E020A4300280BDB58
:10232C001201D2B200F1604000F5614080F8002348
:10233C005DF804FB0023E5E700F00F001201D2B2B8
:10234C00024B1A54F4E700BF00ED00E014ED00E07E
:10235C00002807DB00F01F02400901239340024ACA
:10236C0042F82030704700BF00E100E00138B0F1C6
:10237C00807F0BD24FF0E0235861054AF02182F8A0
:10238C0023100020986107221A61704701207047C2
:10239C0000ED00E010B504460E4B1A784FF47A733A
:1023AC00B3FBF2F30C4A1068B0FBF3F0FFF7DEFF5F
:1023BC0068B90F2C01D901200AE0002221464FF008
:1023CC00FF30FFF78DFF054B1C60002000E0012063
:1023DC0010BD00BF110000201800002014000020C8
:1023EC0008B50B4B1A6842F400721A601A6842F472
:1023FC0080621A601A6842F480721A600320FFF738
:10240C005DFF0020FFF7C6FFFEF7F6FF002008BDBA
:10241C00003C0240034A1168034B1B780B441360C9
:10242C00704700BFC401002011000020014B186848
:10243C00704700BFC401002038B50446FFF7F6FF13
:10244C000546B4F1FF3F02D0044B1B781C44FFF748
:10245C00EDFF401BA042FAD338BD00BF1100002095
:10246C00026802F10C0353E8003F23F490730C3222
:10247C0042E800310029F3D1026802F1140353E859
:10248C00003F23F00103143242E800310029F3D15C
:10249C00036B012B05D0202380F83E30002303630F
:1024AC007047026802F10C0353E8003F23F010035D
:1024BC000C3242E800310029F3D1ECE790F83D30C2
:1024CC00DBB2212B01D0022070478368B3F5805F0B
:1024DC0017D0036A5A1C02621A7803685A60C38CBC
:1024EC009BB2013B9BB2C3844BB90268D36823F007
:1024FC008003D3600268D36843F04003D3600020AC
:10250C0070470369002BE4D1036A1B880268C3F38C
:10251C0008035360036A02330362E0E710B5044614
:10252C000268136923F44053C1680B431361836839
:10253C0002691A4343691A43C3691A430168CB6899
:10254C0023F4164323F00C031343CB600268536946
:10255C0023F4407381690B4353610368314A9342FE
:10256C0006D002F58062934202D0FFF71FFD01E016
:10257C00FFF72CFDE369B3F5004F29D000210318B8
:10258C0049411B1841F10001C90041EA5371DB00BC
:10259C00181863684FEA83024FEA937341F1000104
:1025AC00FDF76EFE204AA2FB00314909642303FBB0
:1025BC0011031B013233A2FB03235B0903F0F0026E
:1025CC0002EB011203F00F03216813448B6010BD62
:1025DC000023021843EB0301121841F10001C9005A
:1025EC0041EA5271D200101841F100016268921850
:1025FC005B41FDF745FE0C4AA2FB003149096423FF
:10260C0003FB1103DB003233A2FB03235B095A00EB
:10261C0002F4F87202EB011203F007032168134471
:10262C008B60D4E7001001401F85EB512DE9F84376
:10263C0005460F4616469946DDF820802B681C6827
:10264C0037EA04040CBF01240024B4422DD1B8F1A4
:10265C00FF3FF3D0B8F1000F05D0FFF7E7FEA0EB7A
:10266C0009004045EAD92A6802F10C0353E8003FFF
:10267C0023F4D0730C3242E800310029F3D12A68DC
:10268C0002F1140353E8003F23F00103143242E833
:10269C0000310029F3D1202385F83D3085F83E30F8
:1026AC00002385F83C30032000E00020BDE8F883CF
:1026BC0058B310B5044690F83D300BB3242384F87E
:1026CC003D302268D36823F40053D3602046FFF7D3
:1026DC0025FF2268136923F4904313612268536920
:1026EC0023F02A0353612268D36843F40053D36068
:1026FC0000202064202384F83D3084F83E3010BD47
:10270C0080F83C30FEF7CCFDD8E7012070472DE96E
:10271C00F04182B01E4690F83D30DBB2202B54D1F4
:10272C0004460D469046002953D0002A53D090F809
:10273C003C30012B51D0012380F83C300023036442
:10274C00212380F83D30FFF771FE0746A4F8248062
:10275C00A4F82680A368B3F5805F05D04FF000087D
:10276C00002384F83C3012E0236913B14FF00008C9
:10277C00F6E7A8460025F3E738F8023B2268C3F3D6
:10278C0008035360E28C92B2013A92B2E284E38C79
:10279C009BB273B100963B46002280212046FFF786
:1027AC0045FFE0B9002DE7D015F8012B23685A60DE
:1027BC00E8E700963B46002240212046FFF736FF13
:1027CC0078B9202384F83D3000E0022002B0BDE847
:1027DC00F0810120FAE70120F8E70220F6E7032058
:1027EC00F4E70320F2E7704708B50168CA6822F0E5
:1027FC004002CA60202280F83D20FFF7F4FF002041
:10280C0008BD704708B5806B0023C385C384FFF7F0
:10281C00F8FF08BD704790F83E30DBB2222B67D131
:10282C008368B3F5805F4DD0826AB3F5805F04D0C6
:10283C00002B54D10369002B51D103685B681370D2
:10284C00836A01338362C38D9BB2013B9BB2C38508
:10285C00002B4FD100B583B00268D36823F020035E
:10286C00D3600268D36823F48073D3600268536921
:10287C0023F001035361202380F83E30036B012BBE
:10288C0033D100230363026802F10C0353E8003FC9
:10289C0023F010030C3242E800310029F3D1036815
:1028AC001A6812F0100F06D0002201921A680192D9
:1028BC005B680193019B818DFFF7ACFF002003B097
:1028CC005DF804FB0269002AAED1826A03685B687A
:1028DC00C3F308031380836A02338362B3E703688C
:1028EC005B6803F07F031370AAE7FEF727FAE5E7AE
:1028FC00022070470020704730B583B00446026850
:10290C001368D068516913F00F0505D113F0200F2F
:10291C0002D010F0200F19D12DB111F0010119D1F5
:10292C0010F4907F16D1216B01297DD013F0800F0C
:10293C0003D010F0800F40F0158113F0400F03D03E
:10294C0010F0400F40F0128103B030BD2046FFF76D
:10295C0062FFF9E713F0010F06D010F4807F03D06B
:10296C00226C42F00102226413F0040F04D019B15E
:10297C00226C42F00202226413F0020F04D019B14F
:10298C00226C42F00402226413F0080F07D010F0FE
:10299C00200F00D119B1226C42F008022264226C83
:1029AC00002AD1D013F0200F02D010F0200F29D123
:1029BC0023685B6903F04003226C12F0080F00D10E
:1029CC0063B32046FFF74CFD23685B6913F0400F9F
:1029DC0020D0226802F1140353E8003F23F0400397
:1029EC00143242E800310029F3D1A36B73B1614A70
:1029FC001A65A06BFFF74EFC0028A5D0A06B036DE9
:102A0C009847A1E72046FFF706FFD1E72046FFF7DE
:102A1C00F8FE99E72046FFF7F4FE95E72046FFF70E
:102A2C00F0FE002323648FE713F0100F3FF47EAF0A
:102A3C0010F0100F3FF47AAF002301931368019349
:102A4C0053680193019B536913F0400F50D0A26B54
:102A5C0013685B689BB2002B3FF476AFA18D994253
:102A6C007FF672AFE385D369B3F5807F37D02268E8
:102A7C0002F10C0353E8003F23F480730C3242E85C
:102A8C0000310029F3D1226802F1140353E8003F0E
:102A9C0023F00103143242E800310029F3D12268FB
:102AAC0002F1140353E8003F23F04003143242E8D0
:102ABC0000310029F3D1202384F83E300023236316
:102ACC00226802F10C0353E8003F23F010030C3290
:102ADC0042E800310029F3D1A06BFFF791FBA18DE7
:102AEC00E38D9BB2C91A89B22046FFF793FE2BE700
:102AFC00A18DE38D9BB2C91A89B2E38D9BB2002BD9
:102B0C003FF422AF00293FF41FAF226802F10C03FF
:102B1C0053E8003F23F490730C3242E80030002855
:102B2C00F3D1226802F1140353E8003F23F00103B0
:102B3C00143242E800300028F3D1202384F83E30D0
:102B4C0000232363226802F10C0353E8003F23F0B7
:102B5C0010030C3242E800300028F3D12046FFF776
:102B6C0059FEF1E62046FFF7A9FCEDE62046FFF7FB
:102B7C003BFEE9E61128000881628285C2850023AC
:102B8C000364222280F83E2080F83C30036923B194
:102B9C000268D36843F48073D3600268536943F0CE
:102BAC00010353610268D36843F02003D360002013
:102BBC00704708B590F83E30DBB2202B0DD171B1C7
:102BCC007AB190F83C30012B0DD0012380F83C30C9
:102BDC0000230363FFF7D0FF00E0022008BD0120B3
:102BEC00FCE70120FAE70220F8E70000034AD2F8DC
:102BFC00883043F47003C2F88830704700ED00E071
:102C0C00DFF834D00D480E490E4A002302E0D458A8
:102C1C00C4500433C4188C42F9D30B4A0B4C002318
:102C2C0001E013600432A242FBD3FFF7DFFFFDF794
:102C3C00FBFAFEF7EFF870470000032000000020BD
:102C4C001C000020F82C00081C000020C8010020EB
:102C5C00FEE70000F8B500BFF8BC08BC9E46704704
:0C2C6C00F8B500BFF8BC08BC9E467047DD
:102C7800444953434F4E4E454354454400000000D9
:102C8800434F4E4E454354454400000053312041C4
:102C98004444523A00000000533220414444523A1E
:102CA800000000004E554D20534C4156453A200037
:102CB80053322D0053312D0053322D30303A00005D
:102CC80053312D30303A00000000000000000000B1
:102CD80001020304060708090000000001020304BA
:082CE800D4D5FF7F01000000BC
:042CF00015020008C1
:042CF400ED010008E6
:102CF800303132333435363738396162636465666A
:0C2D08002D010000100000000024F40069
:0400000508002C0DB6
:00000001FF
